{
  "contractName": "Exchange",
  "abi": [
    {
      "constant": true,
      "inputs": [
        {
          "name": "",
          "type": "uint256"
        }
      ],
      "name": "orderValues",
      "outputs": [
        {
          "name": "",
          "type": "uint256"
        }
      ],
      "payable": false,
      "stateMutability": "view",
      "type": "function"
    },
    {
      "constant": true,
      "inputs": [],
      "name": "nextId",
      "outputs": [
        {
          "name": "",
          "type": "uint256"
        }
      ],
      "payable": false,
      "stateMutability": "view",
      "type": "function"
    },
    {
      "constant": false,
      "inputs": [],
      "name": "renounceOwnership",
      "outputs": [],
      "payable": false,
      "stateMutability": "nonpayable",
      "type": "function"
    },
    {
      "constant": true,
      "inputs": [
        {
          "name": "",
          "type": "uint256"
        }
      ],
      "name": "orderSenders",
      "outputs": [
        {
          "name": "",
          "type": "address"
        }
      ],
      "payable": false,
      "stateMutability": "view",
      "type": "function"
    },
    {
      "constant": true,
      "inputs": [],
      "name": "owner",
      "outputs": [
        {
          "name": "",
          "type": "address"
        }
      ],
      "payable": false,
      "stateMutability": "view",
      "type": "function"
    },
    {
      "constant": true,
      "inputs": [],
      "name": "isOwner",
      "outputs": [
        {
          "name": "",
          "type": "bool"
        }
      ],
      "payable": false,
      "stateMutability": "view",
      "type": "function"
    },
    {
      "constant": true,
      "inputs": [
        {
          "name": "",
          "type": "uint256"
        }
      ],
      "name": "orders",
      "outputs": [
        {
          "name": "",
          "type": "bytes32"
        }
      ],
      "payable": false,
      "stateMutability": "view",
      "type": "function"
    },
    {
      "constant": true,
      "inputs": [
        {
          "name": "",
          "type": "uint256"
        }
      ],
      "name": "cancelledOrders",
      "outputs": [
        {
          "name": "",
          "type": "bool"
        }
      ],
      "payable": false,
      "stateMutability": "view",
      "type": "function"
    },
    {
      "constant": false,
      "inputs": [
        {
          "name": "newOwner",
          "type": "address"
        }
      ],
      "name": "transferOwnership",
      "outputs": [],
      "payable": false,
      "stateMutability": "nonpayable",
      "type": "function"
    },
    {
      "constant": true,
      "inputs": [
        {
          "name": "",
          "type": "address"
        }
      ],
      "name": "deposits",
      "outputs": [
        {
          "name": "",
          "type": "uint256"
        }
      ],
      "payable": false,
      "stateMutability": "view",
      "type": "function"
    },
    {
      "inputs": [
        {
          "name": "_owner",
          "type": "address"
        }
      ],
      "payable": false,
      "stateMutability": "nonpayable",
      "type": "constructor"
    },
    {
      "anonymous": false,
      "inputs": [
        {
          "indexed": false,
          "name": "sender",
          "type": "address"
        },
        {
          "indexed": false,
          "name": "value",
          "type": "uint256"
        }
      ],
      "name": "LogDeposit",
      "type": "event"
    },
    {
      "anonymous": false,
      "inputs": [
        {
          "indexed": false,
          "name": "sender",
          "type": "address"
        },
        {
          "indexed": false,
          "name": "amount",
          "type": "uint256"
        },
        {
          "indexed": false,
          "name": "price",
          "type": "uint256"
        },
        {
          "indexed": false,
          "name": "value",
          "type": "uint256"
        }
      ],
      "name": "LogBuy",
      "type": "event"
    },
    {
      "anonymous": false,
      "inputs": [
        {
          "indexed": false,
          "name": "receiver",
          "type": "address"
        },
        {
          "indexed": false,
          "name": "value",
          "type": "uint256"
        }
      ],
      "name": "LogWithdrawal",
      "type": "event"
    },
    {
      "anonymous": false,
      "inputs": [
        {
          "indexed": false,
          "name": "sender",
          "type": "address"
        },
        {
          "indexed": false,
          "name": "orderId",
          "type": "uint256"
        }
      ],
      "name": "LogCancelOrder",
      "type": "event"
    },
    {
      "anonymous": false,
      "inputs": [
        {
          "indexed": true,
          "name": "previousOwner",
          "type": "address"
        },
        {
          "indexed": true,
          "name": "newOwner",
          "type": "address"
        }
      ],
      "name": "OwnershipTransferred",
      "type": "event"
    },
    {
      "constant": false,
      "inputs": [],
      "name": "deposit",
      "outputs": [],
      "payable": true,
      "stateMutability": "payable",
      "type": "function"
    },
    {
      "constant": false,
      "inputs": [
        {
          "name": "amount",
          "type": "uint256"
        },
        {
          "name": "price",
          "type": "uint256"
        }
      ],
      "name": "placeOrder",
      "outputs": [],
      "payable": true,
      "stateMutability": "payable",
      "type": "function"
    },
    {
      "constant": false,
      "inputs": [
        {
          "name": "orderId",
          "type": "uint256"
        }
      ],
      "name": "cancelOrder",
      "outputs": [],
      "payable": false,
      "stateMutability": "nonpayable",
      "type": "function"
    },
    {
      "constant": false,
      "inputs": [
        {
          "name": "receiver",
          "type": "address"
        },
        {
          "name": "value",
          "type": "uint256"
        }
      ],
      "name": "withdraw",
      "outputs": [],
      "payable": false,
      "stateMutability": "nonpayable",
      "type": "function"
    }
  ],
  "bytecode": "0x608060405234801561001057600080fd5b506040516020806109e4833981016040819052905160008054600160a060020a03191633178082559192600160a060020a0392909216916000805160206109c4833981519152908290a3600160a060020a038116151561006f57600080fd5b61008181640100000000610087810204565b50610127565b6100986401000000006100b8810204565b15156100a357600080fd5b6100b5816401000000006100c9810204565b50565b600054600160a060020a0316331490565b600160a060020a03811615156100de57600080fd5b60008054604051600160a060020a03808516939216916000805160206109c483398151915291a360008054600160a060020a031916600160a060020a0392909216919091179055565b61088e806101366000396000f3006080604052600436106100cf5763ffffffff7c010000000000000000000000000000000000000000000000000000000060003504166333ed0e5f81146100d4578063514fcac7146100fe57806361b8ce8c14610118578063715018a61461012d578063843f61e21461014257806388d64635146101505780638da5cb5b146101845780638f32d59b14610199578063a85c38ef146101c2578063bc15e601146101da578063d0e30db0146101f2578063f2fde38b146101fa578063f3fef3a31461021b578063fc7e286d1461023f575b600080fd5b3480156100e057600080fd5b506100ec600435610260565b60408051918252519081900360200190f35b34801561010a57600080fd5b50610116600435610272565b005b34801561012457600080fd5b506100ec610309565b34801561013957600080fd5b5061011661030f565b610116600435602435610379565b34801561015c57600080fd5b506101686004356104e7565b60408051600160a060020a039092168252519081900360200190f35b34801561019057600080fd5b50610168610502565b3480156101a557600080fd5b506101ae610511565b604080519115158252519081900360200190f35b3480156101ce57600080fd5b506100ec600435610522565b3480156101e657600080fd5b506101ae600435610534565b610116610549565b34801561020657600080fd5b50610116600160a060020a03600435166105bc565b34801561022757600080fd5b50610116600160a060020a03600435166024356105db565b34801561024b57600080fd5b506100ec600160a060020a0360043516610685565b60046020526000908152604090205481565b600081815260036020526040902054600160a060020a0316331461029557600080fd5b60008181526005602052604090205460ff16156102b157600080fd5b600081815260056020908152604091829020805460ff19166001179055815133815290810183905281517f4c2ceb93653c12c08c58b0fad55dd05f81cb430597e7ba75effe74381b050215929181900390910190a150565b60065481565b610317610511565b151561032257600080fd5b60008054604051600160a060020a03909116907f8be0079c531659141344cd1fd0a4f28419497f9722a3daafe3b4186f6b6457e0908390a36000805473ffffffffffffffffffffffffffffffffffffffff19169055565b33600090815260016020526040902054610399903463ffffffff61069716565b336000818152600160209081526040918290209390935580516c01000000000000000000000000909202828401526034820185905260548201849052346074808401919091528151808403909101815260949092019081905281519192909182918401908083835b602083106104205780518252601f199092019160209182019101610401565b51815160001960209485036101000a0190811690199190911617905260408051949092018490038420600680546000908152600284528481209290925580548252600483528382203490819055815483526003845291849020805473ffffffffffffffffffffffffffffffffffffffff191633908117909155815460010190915585529084018890528382018790526060840152517fc5620ded95cbb91682a998bc6df1a310612e51388b47c88b6dfb3f00d8248ddb945091829003608001925050a15050565b600360205260009081526040902054600160a060020a031681565b600054600160a060020a031690565b600054600160a060020a0316331490565b60026020526000908152604090205481565b60056020526000908152604090205460ff1681565b33600090815260016020526040902054610569903463ffffffff61069716565b33600081815260016020908152604091829020939093558051918252349282019290925281517f1b851e1031ef35a238e6c67d0c7991162390df915f70eaf9098dbf0b175a6198929181900390910190a1565b6105c4610511565b15156105cf57600080fd5b6105d881610746565b50565b6105e3610511565b15156105ee57600080fd5b600160a060020a03821660009081526001602052604090205481111561061357600080fd5b600160a060020a03821660009081526001602052604090205461063c908263ffffffff6107c316565b5060408051600160a060020a03841681526020810183905281517fb4214c8c54fc7442f36d3682f59aebaf09358a4431835b30efb29d52cf9e1e91929181900390910190a15050565b60016020526000908152604090205481565b60008282018381108015906106ac5750828110155b151561073f57604080517f08c379a000000000000000000000000000000000000000000000000000000000815260206004820152603860248201527f73756d206d75737420626520657175616c206f7220677265617465722074686160448201527f6e20626f746820617567656e6420616e6420616464656e640000000000000000606482015290519081900360840190fd5b9392505050565b600160a060020a038116151561075b57600080fd5b60008054604051600160a060020a03808516939216917f8be0079c531659141344cd1fd0a4f28419497f9722a3daafe3b4186f6b6457e091a36000805473ffffffffffffffffffffffffffffffffffffffff1916600160a060020a0392909216919091179055565b6000808383111561085b57604080517f08c379a000000000000000000000000000000000000000000000000000000000815260206004820152602d60248201527f73756274726168656e64206d75737420626520657175616c206772656174657260448201527f207468616e206d696e75656e6400000000000000000000000000000000000000606482015290519081900360840190fd5b50509003905600a165627a7a72305820225110261b810b756894855d9f8bb291ce661acc7ffdf5dfc6ab569b3fd5d98000298be0079c531659141344cd1fd0a4f28419497f9722a3daafe3b4186f6b6457e0",
  "source": "pragma solidity ^0.4.23;\n\nimport \"./SafeMath.sol\";\nimport \"./Ownable.sol\";\n\ncontract Exchange is Ownable {\n  using SafeMath for uint256;\n\n  event LogDeposit(address sender, uint256 value);\n  event LogBuy(address sender, uint256 amount, uint256 price, uint256 value);\n  event LogWithdrawal(address receiver, uint256 value);\n  event LogCancelOrder(address sender, uint256 orderId);\n\n  // TODO: use struct\n  mapping (address => uint256) public deposits;\n  mapping (uint256 => bytes32) public orders;\n  mapping (uint256 => address) public orderSenders;\n  mapping (uint256 => uint256) public orderValues;\n  mapping (uint256 => bool) public cancelledOrders;\n\n  uint256 public nextId;\n\n  constructor(address _owner) public {\n    require(_owner != address(0));\n    transferOwnership(_owner);\n  }\n\n  function deposit() public payable {\n    deposits[msg.sender] = deposits[msg.sender].add(msg.value);\n\n    emit LogDeposit(msg.sender, msg.value);\n  }\n\n  /// amount of EOS to buy and at what price\n  function placeOrder(uint256 amount, uint256 price) public payable {\n    deposits[msg.sender] = deposits[msg.sender].add(msg.value);\n    orders[nextId] = keccak256(abi.encodePacked(msg.sender, amount, price, msg.value));\n    orderValues[nextId] = msg.value;\n    orderSenders[nextId] = msg.sender;\n\n    nextId++;\n\n    emit LogBuy(msg.sender, amount, price, msg.value);\n  }\n\n  function cancelOrder(uint256 orderId) public {\n    require(orderSenders[orderId] == msg.sender);\n    require(cancelledOrders[orderId] == false);\n    cancelledOrders[orderId] = true;\n\n    emit LogCancelOrder(msg.sender, orderId);\n  }\n\n  function withdraw(address receiver, uint256 value) onlyOwner public {\n    require(deposits[receiver] >= value);\n    deposits[receiver].sub(value);\n\n    emit LogWithdrawal(receiver, value);\n  }\n}\n",
  "sourcePath": "/home/adam/go/src/github.com/c3systems/c3-sdk-go-example-oracle/ethereum-contracts/contracts/Exchange.sol",
  "compiler": {
    "name": "solc",
    "version": "0.4.24+commit.e67f0147.Emscripten.clang"
  },
  "schemaVersion": "2.0.1",
  "updatedAt": "2018-11-12T22:18:01.803Z"
}